:100000000C9419030C9441030C9441030C94410388
:100010000C9441030C9441030C9441030C94410350
:100020000C9441030C9441030C9441030C94090675
:100030000C9441030C9441030C9441030C94410330
:100040000C946E050C9441030C9441030C944103F1
:100050000C9441030C9441030C9441030C94410310
:100060000C9441030C9441030101FF030101F703C8
:1000700005003801680100004500680100006C00BF
:10008000680000000000240027002A000000000093
:10009000250028002B000500893008023802497825
:1000A00068140000506F6E670005077F4141417F73
:1000B0003E5B4F5B3E3E6B4F6B3E183C783C1818E6
:1000C0003C7E3C181C577D571C1C5E7F5E1C007ECE
:1000D00043437E007E73737E007E7F7F7E7F41413F
:1000E000417F30483A060E06297929067F41414171
:1000F0007F60703F02042A1C361C2A7F3E1C0800C9
:1001000000081C3E7F14227F22143C3C3C7EFF18DA
:10011000423C817E3E6375633E3E616B633E3E635F
:100120006B6B3E04027F020410207F201008082A17
:100130001C08081C2A0808143E554122637569757D
:100140006310181C1810040C1C0C040000000000A4
:1001500000005F00000007000700147F147F1404F4
:100160002A7F2A102313086462364956205000085B
:10017000070300001C2241000041221C002A1C3EF3
:100180001C2A08083E080800E0600000080808086B
:1001900008006060000060100804033E5149453EBD
:1001A00000427F400062514949462141494D331880
:1001B00014127F1027454545393C4A4949304121B1
:1001C0001109073649494936064949291E000024C4
:1001D000000000806400000814224100141414146C
:1001E00014004122140802015909063E415D594E8E
:1001F0007C1211127C7F494949363E414141227FA0
:100200004141221C7F494949417F090909013E4179
:100210004151327F0808087F00417F410020414161
:100220003F017F081422417F404040407F020C0282
:100230007F7F0204087F3E4141413E7F0909090654
:100240003E416141BE7F091929462649494932018B
:10025000017F01013F4040403F1F2040201F3F40A1
:1002600038403F6314081463030478040361514960
:100270004543007F41410003040810600041417F75
:1002800000040201020480808080800003070800CF
:1002900020545478407F2844443838444444283813
:1002A0004444287F3854545418087E09090218A47D
:1002B000A49C787F0804047800447D40000060809E
:1002C000847D7F1010284400417F40007C04780426
:1002D000787C080404783844444438FC18242418F2
:1002E00018242418FC7C08040408085454542004DE
:1002F0003F4444203C4040207C1C2040201C3C408B
:1003000020403C44281028444C9090907C446454F5
:100310004C44000836410000007F000000413608D0
:1003200000180408100C7F4141417F506F6E670038
:10033000F6E8DBCFC3B8AEA49B928A827B746E686A
:10034000625C57524E4945413E3A3734312E2C2992
:10035000272523210A0A153A49676E6F7265006DD9
:10036000560A0A504C45415345205455524E204F91
:10037000464620004C4F5720424154544552592183
:10038000200003053F213F1208120A100A0E1C0E1E
:100390000C1E0C141A14161F161E131E1E1B1E1ED6
:1003A0001F1E3F213F3A2F3A173D173F213F181F8D
:1003B00002040A041F0E04040E1F0A1F0A0E0E1F59
:1003C00004110E2E252E2F2A2E262929021F02085F
:1003D0001F08150E04040E150E15151B151B04061B
:1003E00004040C040000000017000300031F0A1F90
:1003F00016371A1904130A153A000300000E1111DA
:100400000E000A040A040E04003000040404001064
:10041000001804031F111F121F101D151711151F9F
:1004200007041F17151D1F151D01011F1F151F177D
:10043000151F000A00003200040A110A0A0A110AF4
:10044000040115020E11171E051E1F150A0E110AB2
:100450001F110E1F15111F05010E111D1F041F1165
:100460001F1108100F1F041B1F10101F061F1E0452
:100470000F0E110E1F09060E112E1F051A12150957
:10048000011F011F101F0F180F1F0C1F1B041B0340
:100490001C03191513001F11030418111F0002017A
:1004A000022020200001020C121E1F120C0C12123E
:1004B0000C121F0C1A14041E05242A1E1F021C14E1
:1004C0001D1020201D1F0814111F101E041E1E02C7
:1004D0001C0C120C3E0A040C123E1E040214160AD6
:1004E000020F120E101E0E100E1E081E120C1226E7
:1004F000281E322A26041E21001F00211E0401028C
:10050000013F213F172B152010204C4F41444552ED
:1005100000172B16201314000A4E6F20534420633B
:10052000617264206F720A6E6F204C4F41444552D5
:100530002E4845580A0A153A45786974001D204628
:100540006C617368696E670A20206C6F6164657204
:100550002E2E2E0A0A444F4E2754205455524E2018
:100560004F46462100000000002300260029000419
:10057000040404040404040202020202020303034A
:100580000303030102040810204080010204081044
:1005900020010204081020000000080002010000F1
:1005A0000304070000000000000000175344001679
:1005B0001378001613140015102000152010005495
:1005C0000A03E181867F3E186D830F0F0E0183863B
:1005D0006033186DC3198F1803C38E6033186DE331
:1005E00030CF1803C39E603630CDE360CF3006C7EE
:1005F0009E7E3E30CDB360CF300CC6F6603330D92E
:10060000B660CF33CFCCF66061B0DB1E60CF30D8A0
:100610006CE6C061B0DB1E618F19986CC6C063B117
:100620009B0E330F0FB078C6FF7E1F1B061E0F00F8
:100630002F1511241FBECFEFD8E0DEBFCDBF11E0D4
:10064000A0E0B1E0E8E4FFE202C005900D92AC3119
:10065000B107D9F723E0ACE1B1E001C01D92A13DA3
:10066000B207E1F713E0C9E1D3E004C02197FE012E
:100670000E949717C831D107C9F70E94B2100C9495
:10068000A2170C940000CF92DF92EF92FF920F938B
:100690001F93CF93DF936C017A018B01C0E0D0E010
:1006A000CE15DF0589F0D8016D918D01D601ED9150
:1006B000FC910190F081E02DC6010995892B11F480
:1006C0007E0102C02196ECCFC701DF91CF911F912F
:1006D0000F91FF90EF90DF90CF90089580914101AE
:1006E000882319F08091420101C080E08093B4001A
:1006F0000895209127013091280184E590E0821B24
:10070000930B97FD0196959587959093240180937F
:1007100023019093260180932501809129019091D6
:100720002A0191958195910990932A01809329013D
:100730000895089580E090E008950E949D17DC01DF
:10074000ED91FC910190F081E02D09946115710506
:1007500079F0FB0101900020E9F73197AF01461BCA
:10076000570BDC01ED91FC910280F381E02D09949F
:1007700080E090E008954F925F926F927F92EF92A7
:10078000FF920F931F93CF93DF93CDB7DEB7A1975F
:100790000FB6F894DEBF0FBECDBF7C01FA01CB01CE
:1007A00019A2223008F42AE08E010F5D1F4F422E5D
:1007B000512C612C712CBF01A30192010E94F815EC
:1007C000F901CA01015011096A3014F4605D01C0D9
:1007D000695CD8016C93232B242B252B61F7B8017E
:1007E000C7010E94A603A1960FB6F894DEBF0FBE04
:1007F000CDBFDF91CF911F910F91FF90EF907F9030
:100800006F905F904F900895833081F028F481308D
:1008100099F08230A1F008958730A9F08830B9F0BE
:100820008430D1F4809180008F7D03C0809180005E
:100830008F7780938000089584B58F7702C084B548
:100840008F7D84BD08958091B0008F7703C0809123
:10085000B0008F7D8093B00008951F93CF93DF93F6
:10086000282F30E0F901E956FA4F8491F901ED574C
:10087000FA4FD491F901E159FA4FC491CC23C9F050
:10088000162F81110E940404EC2FF0E0EE0FFF1FE1
:10089000E457FF4FA591B4918FB7F894111105C09B
:1008A0009C91ED2FE095E92302C0EC91ED2BEC93A8
:1008B0008FBFDF91CF911F910895CF93DF9390E089
:1008C000FC01ED57FA4F2491FC01E159FA4F849154
:1008D000882361F190E0880F991FFC01EE57FF4FCC
:1008E000C591D491FC01E457FF4FA591B4916111DA
:1008F00009C09FB7F8948881209582238883EC9162
:100900002E230BC0623061F49FB7F8943881822F98
:10091000809583238883EC912E2B2C939FBF06C058
:100920008FB7F894E8812E2B28838FBFDF91CF916A
:1009300008951F93CF93DF93182FEB0161E00E947E
:100940005D04209711F460E004C0CF3FD10539F475
:1009500061E0812FDF91CF911F910C942D04E12F45
:10096000F0E0E956FA4FE491E330F9F048F4E13071
:10097000B9F0E230A1F584B5806284BDC8BD34C051
:10098000E730E9F0E83019F1E43049F58091800072
:10099000806280938000D0938B00C0938A0024C033
:1009A00084B5806884BDC7BD1FC080918000806809
:1009B00080938000D0938900C093880015C08091F7
:1009C000B00080688093B000C093B3000DC08091E8
:1009D000B00080628093B000C093B40005C0C038FE
:1009E000D1050CF0B5CFAFCFDF91CF911F91089516
:1009F0008E3008F08E508770806480937C008091E8
:100A00007A00806480937A0080917A0086FDFCCF22
:100A1000809178002091790090E0922B08953FB763
:100A2000F89480911E0190911F01A0912001B09136
:100A3000210126B5A89B05C02F3F19F00196A11DE5
:100A4000B11D3FBFBA2FA92F982F8827820F911D64
:100A5000A11DB11DBC01CD0142E0660F771F881FAB
:100A6000991F4A95D1F708958F929F92AF92BF92A6
:100A7000CF92DF92EF92FF926B017C010E940F05F3
:100A80004B015C01C114D104E104F104F1F00E94B6
:100A90000F05DC01CB0188199909AA09BB09883E19
:100AA0009340A105B10570F321E0C21AD108E10815
:100AB000F10888EE880E83E0981EA11CB11CC114B9
:100AC000D104E104F10419F7DDCFFF90EF90DF903E
:100AD000CF90BF90AF909F908F9008951F920F92EC
:100AE0000FB60F9211242F933F938F939F93AF9341
:100AF000BF938091460190914701A0914801B09128
:100B0000490130911D0123E0230F2D3720F4019678
:100B1000A11DB11D05C026E8230F0296A11DB11D20
:100B200020931D018093460190934701A0934801B3
:100B3000B093490180911E0190911F01A091200165
:100B4000B09121010196A11DB11D80931E019093CA
:100B50001F01A0932001B0932101BF91AF919F91FC
:100B60008F913F912F910F900FBE0F901F9018956E
:100B7000CF93DF93EC011F8A1D8A1CA21BA2188E43
:100B80001092420110924301109241010E946E03A3
:100B900088E790E09E878D871B8A1A8A81E0898387
:100BA00089E08E8B198E1B8E1D8EDF91CF9108955B
:100BB000FC0161110DC0178A158A14A213A2108EB0
:100BC0001092420110924301109241010C946E0365
:100BD0000895CF93DF93EC011F8A1D8A1CA21BA2EC
:100BE000188E1092420110924301109241010E940E
:100BF0006E0380E790E09E878D871B8A1A8A81E0CA
:100C0000898389E08E8B198E1B8E1D8EDF91CF918B
:100C100008951F920F920FB60F9211242F933F93B6
:100C20004F935F936F937F938F939F93AF93BF93F4
:100C3000EF93FF9360914301662321F180911C01A2
:100C40008F5F80931C01909144018917D8F0909197
:100C5000410181E089278093410110921C0180911C
:100C60004501882369F08091000193E4899F802DDC
:100C70001124895B809300010E94631790934201C5
:100C80000E946E03FF91EF91BF91AF919F918F9161
:100C90007F916F915F914F913F912F910F900FBE78
:100CA0000F901F901895FC01643508F053C0403335
:100CB00008F050C090A1742F759575957595262FE5
:100CC000062E000C330B542F57709230A1F4F9010B
:100CD000E65BFE4F84E57802E00DF11D1124808172
:100CE00090E0052E02C0959587950A94E2F78095CD
:100CF000982F91700AC0933041F484858170462703
:100D000040954170841303C014C0911112C084E552
:100D10007802200D311D1124F901E65BFE4F81E0C0
:100D200090E001C0880F5A95EAF780959081892359
:100D300010C084E57802200D311D1124F901E65B15
:100D4000FE4F81E090E001C0880F5A95EAF790814C
:100D5000892B80830895BF92CF92DF92EF92FF920A
:100D60000F931F93CF93DF931F92CDB7DEB77C0114
:100D7000D62EC42E002E000C110B040F111D47FDA2
:100D80001A954C2D0C2C000C550B401751077CF478
:100D9000B12CB21654F46B2D6D0D4C2DC701298367
:100DA0000E945306B3942981F4CFC394EACF0F90E5
:100DB000DF91CF911F910F91FF90EF90DF90CF9037
:100DC000BF9008956F927F928F929F92AF92BF9241
:100DD000CF92DF92EF92FF920F931F93CF93DF9307
:100DE000EC016A3019F42D819885A1C06D3009F4A9
:100DF000A4C01885BA84D98488A083E58D150CF425
:100E00007FC08FE28B150CF47BC08C8190E0019742
:100E1000189F9001199F300D1124C9018D0D911D4E
:100E2000D7FC9A95181619060CF06AC08D81819F1F
:100E3000C00111248B0D911DB7FC9A951816190647
:100E40000CF05EC09D2CCD2CE62EF12CEC2DED1976
:100E50000E2E000CFF0B8C8190E0E817F9070CF0C8
:100E60004EC00197E817F90779F0E89E9001E99ED6
:100E7000300DF89E300D1124E20FF31F8E8D9F8DE3
:100E8000E80FF91F749001C0712C6B2CAB2C2A2D2C
:100E90002B19022E000C330B8D8190E02817390797
:100EA0005CF570FE10C0113031F44A2D6C2DCE016E
:100EB0000E9453061DC0012F212F462D692DCE0102
:100EC0000E94AB0615C089A198A1891789F088A353
:100ED000113031F44A2D6C2DCE010E94530607C00B
:100EE000012F212F462D692DCE010E94AB0688A22D
:100EF0007694A394610ECBCFC394910EA7CF88A212
:100F000028853C818985329F800D112489879F81A6
:100F1000992399F0082E000C990B44E550E0239F8B
:100F2000401951091124481759073CF49D818A85BD
:100F3000299F800D11248A87198681E090E0DF9136
:100F4000CF911F910F91FF90EF90DF90CF90BF90C6
:100F5000AF909F908F907F906F9008954F925F9287
:100F60006F927F928F929F92AF92BF92CF92DF92B9
:100F7000EF92FF920F931F93CF93DF9300D000D097
:100F80001F92CDB7DEB74091CA035091CB03609159
:100F9000CC037091CD032FB7F894809146019091C6
:100FA0004701A0914801B09149012FBF481B590B3F
:100FB0006A0B7B0B8091C90390E0A0E0B0E0009148
:100FC000C5031091C6032091C7033091C80384174D
:100FD0009507A607B70730F401151105210531055E
:100FE00009F035C3012B022B032B09F02EC380918E
:100FF000610381508E3F18F580916003813021F5A7
:10100000809174038F5F6091750387FD09C0082E7E
:10101000000C990B70E06F5F7F4F0E946F17682F75
:101020006093740381E195E09093CF038093CE03A6
:1010300088E48093D0038FE693E00E94B805809106
:10104000610381508E3F70F480915F03813009F01D
:10105000AAC384E095E09093CF038093CE0388E405
:101060008093D00380E00E94220D8091700388233A
:1010700009F4ADC0809184038111A9C080917C03E3
:1010800090917D03E0918103F0918203EE0FFF1FA9
:10109000E80FF91F459154914115510501F5209133
:1010A0008003222331F01092820310928103FC010D
:1010B00014C01092700380916F03882341F080E088
:1010C0000E94220DE0918103F09182032FC060E025
:1010D0008FE693E00E94D8057AC0459154919A0119
:1010E000369527953695279540FF51C0CA0116E0E1
:1010F000969587951A95E1F78F71952F9695969508
:10110000969590512F70223071F1F8F4211117C08B
:101110008B3008F08AE080938503E0918103F091A1
:1011200082033196F0938203E0938103EE0FFF1F59
:1011300080917C0390917D03E80FF91FCECF213081
:1011400061F760E00E948F0DE8CF2330B1F02430CA
:1011500021F720917303829F802D112480938C03AB
:1011600090938D03DACF20917303829F802D1124F9
:101170008093880390938903D0CF20917303829F3B
:10118000802D112480938A0390938B03C6CF2F73F5
:101190002093830380917303859F802D1124809376
:1011A000840310929403109293031092920381E0AF
:1011B000809386038093410110928703809181037D
:1011C0009091820301969093820380938103809192
:1011D0008603882309F4F3C080918403811106C03B
:1011E00060E08FE693E00E94D805E9C081508093CB
:1011F000840380919403811148C02091920330911F
:1012000093032F5F3F4FC901880F991FE0918E0311
:10121000F0918F03E80FF91F65917491862F877005
:1012200080939503AB01E3E056954795EA95E1F786
:10123000CA0196958795972F9695969590939603C4
:101240008F7390917303899F802D11248093940351
:101250004170409345013093930320939203809112
:10126000900390E02817390780F020919103222302
:1012700039F0821B9109909393038093920305C0E8
:1012800060E08FE693E00E94D8058091940381503E
:10129000809394038091870321E0280F2093870394
:1012A0004091830330919603340F80917B03380F74
:1012B0003093710360918A03662371F070E0822F8E
:1012C000022E000C990B0E946F1780918B03869F52
:1012D000300D1124309371038091710390E0849656
:1012E00064E270E00E946F17809371033091850370
:1012F0003093720360918803662381F0062E000C00
:10130000770B822F022E000C990B0E946F17809191
:101310008903869F300D11243093720360918C03F2
:101320006623A1F0822F220F990B70E00E946F17A5
:10133000CB0162E070E00E946F1720918D039091C5
:101340007203289F900D1124909372038091720371
:101350004F3341F08A300CF089E087FD80E08093C4
:10136000720302C010927203F894E0917103F0E0EE
:10137000E05DFC4FE491E0934401309172032091D1
:101380009703320390011124409195034203C00159
:10139000439F900D11240090740302C0880F991F81
:1013A0000A94E2F797FF02C081589F4F880F892F58
:1013B000881F990B80934301809342017894809118
:1013C000D003882309F48DC08C3020F49CE0E92EF2
:1013D000E81A01C0E12CFF24F394F092A0031092CC
:1013E000B8031092B90330919D034DE2D42E1D2D08
:1013F000131B1E0D03E0030F2EE4412F63E088E969
:1014000093E03D830E94AB063D810CEF030F1D5F0F
:10141000202F41E0612F80E50E94600E202F42E0E6
:10142000612F83E00E94600EF092B803F092B9033E
:1014300000919D0313E0100FD01ADE0C23E04D2D18
:10144000622F88E993E02D830E9453062D812F5F40
:101450002135A9F71D0DFF24FA94F10E23E04F2D3D
:10146000622F88E993E02D830E9453062D812F5F20
:101470002135A9F7035033E0D30E402F6D2D80E0C6
:101480000E94480E402F6D2D83E50E94480E41E0DA
:101490006D2D83E00E94CA0D42E06D2D80E50E9413
:1014A000CA0D145044E0612F80E50E94CA0D48E047
:1014B000612F83E00E94CA0D84E08093A103809194
:1014C0009D03E81A8E2D815D8093A2038091CE0347
:1014D0009091CF030E94BC0C8091D00381508093E7
:1014E000D0038091660390916703892B09F485C02E
:1014F00011E01093B8031092B90390919C0385E515
:10150000891B8093A1031092A20360916303613051
:1015100009F454C030F080916203653008F066C071
:1015200061C060E08FE693E00E94D80510927003DE
:101530001093A003E2E8F3E0E491EF5FE0939C03F3
:10154000E3E8F3E0E491EF5FE0939D0384E893E048
:101550009093B7038093B6031092670310926603CB
:1015600010929E0318EA0E94AE078823E1F384E7F5
:1015700093E00E94BC0C409164035091650360E0CD
:1015800070E02AE088E993E00E94BB038FE593E0D6
:101590000E94BC0C412F42954F7050E060E070E01B
:1015A00088E993E00E94BB0E84E593E00E94BC0CA6
:1015B00080915F03813009F0FCC01FC08091BB03A4
:1015C0009091BC03A091BD03B091BE038F70992789
:1015D000AA27BB270897A105B10510F467E009C049
:1015E00068E707C0882349F06B5F03C0882329F0B0
:1015F0006FE288E993E00E949F030E947C0C809137
:101600009E0381110EC088EF91E0EAE4F1E0DF0172
:101610009C011D9221503040E1F71092A1031092DD
:10162000A2030E940F056093C5037093C6038093C5
:10163000C7039093C8032091C1033091C203621B7A
:10164000730B7093C0036093BF0380E0CCC02FB7CF
:10165000F8948091460190914701A0914801B09182
:1016600049012FBF2091C903820F911DA11DB11DFA
:101670008093CA039093CB03A093CC03B093CD0384
:101680008091BB039091BC03A091BD03B091BE03B8
:101690000196A11DB11D8093BB039093BC03A09341
:1016A000BD03B093BE031092C5031092C6031092FF
:1016B000C7031092C8030E940F056093C103709383
:1016C000C2038093C3039093C40380914B03909112
:1016D0004C032FE0289F8001299F100D112485E1E4
:1016E0000E94F804800F911F24E0969587952A9513
:1016F000E1F790934C0380934B0320914A032223FC
:1017000009F44BC060914E03262F30E040E050E0DA
:1017100029833A834B835C83C0904F03D12CE12C07
:10172000F12C40915203509153034A01A12CB12C4A
:1017300020915003309151032901612C712C8217A3
:10174000930728F09C014817590708F49A01C9012A
:10175000A0E0B0E09C01AD01241935094609570904
:1017600069817A818B819C816C197D098E099F0921
:101770000E945317A50194012419350946095709F8
:101780000E94C615C20ED31EE41EF51EC0924D0364
:101790006C2D70E085E00E9499040E94090C0E9463
:1017A000ED0E81E020C0893209F05CCC0E94ED0C86
:1017B00059CC115009F0D7CE60E070E085E00E946E
:1017C000990483B7817F846083BF83B7816083BFBF
:1017D00083B7816083BF889583B78E7F83BF83B7CC
:1017E0008E7F83BFC0CE0F900F900F900F900F9001
:1017F000DF91CF911F910F91FF90EF90DF90CF90ED
:10180000BF90AF909F908F907F906F905F904F9020
:101810000895CF92DF92EF92FF920F931F93CF9391
:10182000DF93C4E5D3E00BE513E0FF24FA9497E0DF
:10183000E92EE00E62E088810E945D04288130E09C
:10184000F901E956FA4F8491F901ED57FA4FC49026
:10185000F901E159FA4FD490DD2071F081110E9415
:101860000404ED2DF0E0EE0FFF1FEB59FA4FA591A8
:10187000B491EC91EC21B1F4F80180818F5F808309
:1018800060E088810E945D0421960F5F1F4FE01287
:10189000D1CFDF91CF911F910F91FF90EF90DF900B
:1018A000CF900895F8018081882371F3F8018F3F6C
:1018B00011F41082E5CFF082E3CFCF93C82FF894D4
:1018C00060E08091A7030E942D048091A803181660
:1018D0001CF460E00E942D04CEBD00000DB407FE94
:1018E000FDCF8EB58091A80318161CF461E00E940C
:1018F0002D047894CF9108950F931F93CF938091E7
:10190000A4038F5F8093A4030AE411E0C0E08C2F4E
:1019100080640E945D0C80E80E945D0C61E0809113
:10192000A7030E942D048091A80318161CF460E000
:101930000E942D0480E090E0F801E80FF91F20815B
:101940002EBD00000DB407FEFDCF2EB501968435E7
:10195000910591F78091A80318161CF461E00E948C
:101960002D04CF5F0C5A1F4FC63089F680E4CF910B
:101970001F910F910C945D0C0F931F93CF93DF93E6
:101980008C01C0E0D0E0F801EC0FFD1F64916623EC
:1019900071F0E0919803F09199030190F081E02DAE
:1019A00088E993E00995892B11F02196ECCFCE01BF
:1019B000DF91CF911F910F910895CF93DF930E94F4
:1019C000BC0CEC0161E171E088E993E00E94A603A0
:1019D0008C0F9D1FDF91CF91089588EF91E0EAE48D
:1019E000F1E0DF019C011D9221503040E1F710929F
:1019F000A1031092A2038DE395E00E94BC0C0E940B
:101A00007C0C8CB583608CBD8DB58E7F8DBD84E1E3
:101A100091E0EEEFFFE3099510929E0388E195E0D7
:101A20000E94DD0C0E947C0C0E94090C80915F03D7
:101A3000813039F062E370E080E090E00E9434058C
:101A4000F3CF0895AF92BF92CF92DF92EF92FF92C1
:101A50000F931F93CF93DF93C82ED12CE601C65B63
:101A6000DC4F9DA1992309F44FC07E019FEFE91A35
:101A7000F90AF70195A1911147C09EA58601000FB3
:101A8000111F065B1C4FF80134A525A5E32FF22F8B
:101A9000E90FF11DE90FF11D259134912F3FFFEF63
:101AA0003F0711F41DA230C039ABF601EE0FFF1F46
:101AB000EC5AFC4F3327220F331F05A0F6A1E02D6F
:101AC000E20FF31FA590B49081111AC060E08FE679
:101AD00093E00E94D805F801B3AAA2AAF601EE0F7E
:101AE000FF1FE45AFC4F16A215A281E0F70185A35F
:101AF00089E08BAF1EAEFE017B9615A2329615A231
:101B000029968DA18F5F8DA3DF91CF911F910F91AA
:101B1000FF90EF90DF90CF90BF90AF90089570E06E
:101B2000DB01AA0FBB1FA65BBC4FD4962C91D497A8
:101B3000D5969C91D597E22FF92FE80FF11DE80F6C
:101B4000F11D259134915F9696963C932E9395972F
:101B5000F9018591949190917303989F802D1124A0
:101B6000665B7C4FFB01B19685A3F901A591B49109
:101B70004B2F50E0E82FF0E04E175F0720F4F901FB
:101B800025913491832FFB01B296899F802D1124DA
:101B900085A30895AF92BF92CF92DF92EF92FF920A
:101BA0000F931F93CF93DF93182F062FC1E0D3E03D
:101BB0008AEFD82E9EEFE92E842F8470C82E842FB2
:101BC0008270B82E842F8870A82E4170F42E8C2F2E
:101BD000880F8F5FE80ECC2081F04D2F400F6C2FC7
:101BE000610F88E993E00E9453064C2F400F6D2F40
:101BF000610F88E993E00E945306BB2081F0402FDB
:101C00004D1B6C2F610F88E993E00E945306402F13
:101C10004C1B6D2F610F88E993E00E945306AA20A8
:101C200081F04C2F400F612F6D1B88E993E00E94DB
:101C300053064D2F400F612F6C1B88E993E00E94E3
:101C40005306FF2081F0402F4C1B612F6D1B88E94C
:101C500093E00E945306402F4D1B612F6C1B88E9B7
:101C600093E00E945306CD1744F4E7FC04C0D15022
:101C7000D394D394ED0CCF5FAACFDF91CF911F9176
:101C80000F91FF90EF90DF90CF90BF90AF900895AD
:101C90000F931F93CF93DF93182F062FD42FC0E0FD
:101CA000CD174CF44C2F400F612F88E993E00E9430
:101CB0005306CF5FF5CFDF91CF911F910F9108951C
:101CC0009F92AF92BF92CF92DF92EF92FF920F93CB
:101CD0001F93CF93DF93F82EE62EB22E03E0020F70
:101CE000D0E0C3E08AEFC82E1EEF842F8170982EBB
:101CF000AA24A394A20E4270D42EDF5F802F8B19EA
:101D0000180F992081F04C2F440F4A0D6E2D6C1B3B
:101D10008D2F8F0D0E94480E402F6E2D6D1B8C2F26
:101D20008F0D0E94480EDD2081F04C2F440F4A0D8C
:101D30006E2D6C1B8F2D8D1B0E94480E402F6E2D1B
:101D40006D1B8F2D8C1B0E94480EDC1744F417FD71
:101D500004C0C150C394C3941C0D0E5FCECFDF915D
:101D6000CF911F910F91FF90EF90DF90CF90BF9098
:101D7000AF909F900895CF92DF92EF92FF920F93D2
:101D80001F93CF93DF9377FF1DC06A017B01EC01A6
:101D90006DE20E949F038C0144275527BA014C191C
:101DA0005D096E097F092AE0CE010E94BB03800F06
:101DB000911FDF91CF911F910F91FF90EF90DF90D6
:101DC000CF9008952AE0DF91CF911F910F91FF905E
:101DD000EF90DF90CF900C94BB03809166039091BD
:101DE0006703892BB1F180916E038F7169F584E1EE
:101DF0000E94F804BC01990F880B990B0E945A1697
:101E000026EE3FE34EEC50E40E94BE160E942916D7
:101E10009B017093650360936403672B91F084E0EA
:101E200080936303E6E6F3E080E04191519124174B
:101E3000350718F48093630308958F5F8430A9F702
:101E400003C08FEF8093630380916E038F5F809355
:101E50006E0308953F924F925F926F927F928F929E
:101E60009F92AF92BF92CF92DF92EF92FF920F9329
:101E70001F93CF93DF93EC0181E08093A003109236
:101E80009F0310929E03109262038093B803809385
:101E9000B90330EC432E35E0532EDD24D3942CE0EF
:101EA000C22E0E94AE078823E1F3FE018491EFEB7E
:101EB000F5E0A490F20184900091B8030A2C000C84
:101EC000BB081A141B0404F11092A103C092A203D0
:101ED000CE010E94BC0C80919C03982F990F890F12
:101EE00081958D5A8093A10380919D03982F990F1E
:101EF000890F8195835D8093A2038091BB0384FF4A
:101F0000A4C08BEB95E0A3C01814F4F6482D413320
:101F10000CF040E38A2DF5E5AF16B1040CF084E532
:101F2000F090A40397E0A90EB11C93E0B594A79498
:101F30009A95E1F710E02AE431E091E061EC75E078
:101F4000842E440F9908412F50E0481559050CF094
:101F5000BBCFFB01E4900130B9F4D90140E8542F24
:101F60005E2119F05C91592B5C9350E05595479593
:101F70004115510519F43196E49040E811965A2F15
:101F8000521B581760F358C001111AC0792E709473
:101F9000FB01D90140E8542F5E2119F05C915721D3
:101FA0005C9350E0559547954115510519F43196CC
:101FB000E49040E811965A2F521B581760F33CC02A
:101FC000033019F5692E6094FB01D90140E8722EA7
:101FD0003A2E321A542F5E2141F03F245C9130FE9C
:101FE00002C0592B01C056215C9350E0559547958E
:101FF0004115510519F43196E49040E811965A2F95
:102000005719581728F3FD2417C0FB01D90140E8E0
:10201000542F5E2119F05C9159275C9350E055953F
:1020200047954115510519F43196E49040E8119611
:102030005A2F521B581760F3990F19F42C5A3F4F1F
:1020400091E01F5F6A0D7B1D7ECF87EB95E00E94BC
:10205000DD0C80919C03982F990F890F81958D5AE3
:102060008093A1038091A2038F5F8093A20380914C
:102070007403882319F083EB95E002C08FEA95E0A2
:102080000E94DD0C80919C03982F990F890F8195F8
:102090008D5A8093A1038091A2038F5F8093A20346
:1020A0008BEA95E00E94DD0C809160038130B1F4F1
:1020B000809174038F5F6091750387FD09C0082EBE
:1020C000000C990B70E06F5F7F4F0E946F17682FB5
:1020D000609374038FE693E00E94B80580915F03DC
:1020E0008130A9F08091BA03482F50E060E070E0A1
:1020F0000091BB031091BC032091BD033091BE033E
:10210000041715072607370728F18F3F19F18FEFBE
:102110008093BA0360E08FE693E00E94D8051092A6
:1021200070038FE693E00E94E90581E080936203EB
:10213000DF91CF911F910F91FF90EF90DF90CF90A3
:10214000BF90AF909F908F907F906F905F904F90D7
:102150003F90089580916103813009F0A2CE0E94E2
:10216000ED0C9DCE789484B5826084BD84B5816089
:1021700084BD85B5826085BD85B5816085BD809152
:102180006E00816080936E001092810080918100CA
:1021900082608093810080918100816080938100C2
:1021A000809180008160809380008091B100846084
:1021B0008093B1008091B00081608093B0008091E5
:1021C0007A00846080937A0080917A0082608093A4
:1021D0007A0080917A00816080937A0080917A0001
:1021E000806880937A001092C10082E38093C903D3
:1021F00081E090E0A0E0B0E08093C5039093C60337
:10220000A093C703B093C8038FEF8093BA03E0E8AD
:10221000F7E7259134912130304C09F049C0E6E9C7
:10222000F7E7E491E093A303E7E9F7E7E491E093AC
:102230004E03E8E9F7E7E491E0934F03E9E9F7E7B4
:10224000859194919093510380935003EBE9F7E7C4
:1022500085919491909353038093520388E08093E7
:102260007503EEE9F7E7E491E0937403EFE9F7E72C
:10227000E491E093BA03E0EAF7E7859194919093B3
:10228000670380936603E2EAF7E785919491909360
:10229000690380936803E4EAF7E78591949190934A
:1022A0006B0380936A03E6EAF7E7859194912CC06B
:1022B0009CE39093A30310924E0380934F0380E21C
:1022C00093E0909351038093500384ED93E09093B7
:1022D00053038093520388E08093750380937403C3
:1022E0008CEA9DE090936703809366038EED9DE0FA
:1022F000909369038093680384E79EE090936B0357
:1023000080936A038CE39FE090936D0380936C034A
:10231000C1E0C0934A036FEF70E085E00E9499042A
:1023200088E08093540389E08093550387E080938D
:10233000560386E080935703D4E0D093580382E09D
:102340008093590381E180935A030E94090C8CE326
:102350009FE09093650380936403D0936303C093DD
:102360006E038BE08093A6038DE08093A50380E14C
:102370008093A7038EE08093A9038FE08093A80346
:10238000C093A003C093B8031092B903C0939F03F6
:10239000E2E8F3E0E491EF5FE0939C03E3E8F3E02D
:1023A000E491EF5FE0939D0384E893E09093B7039B
:1023B0008093B603CFB7F89480912201811127C092
:1023C000E9E7F5E08491EDE8F5E09491E82FF0E09D
:1023D000EE0FFF1FEE57FF4FA591B491EC91E9234B
:1023E00021F461E08AE00E942D0461E08AE00E940D
:1023F0005D048CB580618CBD8CB580648CBD61E062
:102400008DE00E945D0461E08BE00E945D0480919C
:1024100022018F5F80932201CFBF8CB58F7D8CBD51
:102420008CB58C7F81608CBD8DB581608DBD8CB588
:102430008C608CBD61E08091A6030E945D0461E028
:102440008091A5030E945D0461E08091A7030E9432
:102450005D048091A90318161CF461E00E945D04DC
:102460008091A80318161CF461E00E945D0480911D
:10247000A903181674F460E00E942D046AE070E06D
:1024800080E090E00E94340561E08091A9030E9401
:102490002D048091A503082E000C990BFC01E15935
:1024A000FA4FE491F0E0EE0FFF1FE457FF4F259144
:1024B00034913093AD032093AC03FC01ED57FA4FF8
:1024C000E491E093B3038091A603082E000C990BCE
:1024D000FC01E159FA4FE491F0E0EE0FFF1FE457E1
:1024E000FF4F259134913093AB032093AA03FC0155
:1024F000ED57FA4FE491E093B2038091A803082EC0
:10250000000C990BFC01E159FA4FE491F0E0EE0F59
:10251000FF1FE457FF4F259134913093AF03209371
:10252000AE03FC01ED57FA4FE491E093B4038091C0
:10253000A703082E000C990BFC01E159FA4FE49116
:10254000F0E0EE0FFF1FE457FF4F259134913093D9
:10255000B1032093B003FC01ED57FA4FE491E093EF
:10256000B50381E20E945D0C84E10E945D0C8091C4
:10257000A30387FF03C08FE78093A3038091A30386
:1025800080680E945D0C80E20E945D0C8CE00E94DD
:102590005D0C0E947C0CC1E0C093730384E08093C7
:1025A00097038EE790E090937F0380937E0360E033
:1025B00080E00E948F0D61E070E083E00E9499044A
:1025C0008091B100887F81608093B100F89410926F
:1025D000800010928100109285001092840088E1A2
:1025E00091E09093890080938800809181008860B9
:1025F000809381008091810081608093810080912F
:102600006F00826080936F0078940E94ED0E80913D
:102610006003813019F4109274031EC0809163032B
:102620008823C9F360E08FE693E00E94D80586E92D
:1026300090E090937D0380937C031092820310922C
:102640008103C093700389E080938503109288030F
:1026500010928A0310928C03E9EAF0E0E491EF5FB4
:10266000E0939C03EAEAF0E0E491EF5FE0939D03DE
:102670008BEA90E09093B7038093B6038091BA03FE
:10268000882321F084EA90E00E942A0FC09064031E
:10269000D0906503C094D094E12CF12C0E940F05DA
:1026A0004B015C010E940F05A50194012095309516
:1026B0004095509560957095809590950E94531720
:1026C0009B01AC01C701B6010E9453174B015C018D
:1026D00080914B0390914C036C01E12CF12C0E94F2
:1026E0000F05C60ED71EE81EF91EC701B601680DFC
:1026F000791D8A1D9B1D611571058105910511F0DC
:102700000E94BD1510926203C0E3D0E080E0E82E85
:1027100080E0F82E92E0892E2FE0922E30E1B32E49
:1027200049E3A42E0E94AE07882371F080916103D3
:10273000813081F48091BA03882321F08BE293E009
:102740000E942A0F10926203E114F10459F30E94CF
:102750000000E8CF80915C0381508E3F08F4B5C043
:1027600080915E0381508E3F90F480913B01909167
:102770003C0120913F0130914001280F391F203347
:1027800031052CF4029690933C0180933B014091DB
:10279000250150912601A0912701B09128019A01AD
:1027A0002A0F3B1F37FF02C02F5F3F4F35952795FC
:1027B0008091310190913201609135017091360123
:1027C000680F791FFB0177FD3196F595E7952E1778
:1027D0003F072CF4181619066CF4029707C0E2178D
:1027E000F30744F4603371052CF4029690933201A0
:1027F000809331012091230130912401809129019E
:1028000090912A01820F931F9093240180932301BA
:1028100080912B0190912C01480F591F57FF05C043
:10282000109226011092250112C09A012A0F3B1F17
:10283000213331052CF4509326014093250112C019
:102840009E012A1B3B0B3093260120932501919575
:102850008195910990932C0180932B018FE693E051
:102860000E94B80540913F015091400180913D0187
:1028700090913E0100913B0110913C01C0903901C3
:10288000D0903A01209127013091280160912501D3
:1028900070912601E0912301F0912401DF01A20F44
:1028A000B31FCA16DB06FCF48C0D9D1DE817F90753
:1028B000D4F46B01C20ED31E0C151D05A4F4400FF9
:1028C000511F641775077CF4B6C080913B0190914D
:1028D0003C01181619060CF043CF029790933C0167
:1028E00080933B013DCFC0903501D09036010091DF
:1028F00033011091340140913101509132018091A6
:102900002F01909130018A179B078CF4080F191F33
:10291000E017F10764F4FB01E20FF31F4E175F07A6
:1029200034F44C0D5D1D641775070CF482C02091C2
:1029300023013091240137FF0AC080912D0190912D
:102940002E01019690932E0180932D0112C080914B
:10295000270190912801820F931F853591057CF006
:1029600080913701909138010196909338018093BE
:1029700037018FE693E00E94E9050E947903809178
:102980003701909138010A9731F080912D01909193
:102990002E010A9741F410923801109237011092DB
:1029A0002E0110922D018092A0039092A103B0926B
:1029B000A2034091370150913801052E000C660B9F
:1029C000770B88E993E00E94BB0EA092A103B0921E
:1029D000A20340912D0150912E01052E000C660B93
:1029E000770B88E993E00E94BB0E00913F01209194
:1029F0003D0140913B016091390188E993E00E94DB
:102A0000AB06009135012091330140913101609175
:102A10002F0188E993E00E94AB0620912701022F45
:102A2000409125016091230188E993E00E94AB0663
:102A30008BCE821B930B9093240180932301809172
:102A4000290190912A0191958195910990932A01EC
:102A5000809329018FE693E00E94B80568CF109219
:102A60009B0310929A0389E091E0909399038093DD
:102A70009803E7E3F1E0118210821382128283E06F
:102A800090E09783868320E130E03187208735838B
:102A90002483EDE2F1E01182108241E550E053839E
:102AA0004283978386833187208735832483E3E2BB
:102AB000F1E026E030E03583248397838683918795
:102AC000808787E290E09183808385E190E0938323
:102AD000828308958F929F92AF92BF92CF92DF929E
:102AE000EF92FF92CF93DF93EC01688179818A8125
:102AF0009B81611571058105910521F464E279EDF1
:102B00008BE597E02DE133EF41E050E00E94C615E0
:102B100049015A019B01AC01A7EAB1E40E94E51505
:102B20006B017C01ACEEB4EFA50194010E94F3159A
:102B3000DC01CB018C0D9D1DAE1DBF1DB7FF03C079
:102B40000197A109B04888839983AA83BB83BC01FC
:102B5000CD019F77DF91CF91FF90EF90DF90CF90E5
:102B6000BF90AF909F908F9008950E946A1508952E
:102B700081E091E00E946A150895609301017093CD
:102B8000020180930301909304010895052E97FBA1
:102B90001EF400940E94DD1557FD07D00E94F81521
:102BA00007FC03D04EF40C94DD15509540953095FC
:102BB00021953F4F4F4F5F4F0895909580957095A9
:102BC00061957F4F8F4F9F4F08950E941A16A59FC2
:102BD000900DB49F900DA49F800D911D1124089518
:102BE000B7FF0C94E5150E94E515821B930B089521
:102BF000A1E21A2EAA1BBB1BFD010DC0AA1FBB1F01
:102C0000EE1FFF1FA217B307E407F50720F0A21B72
:102C1000B30BE40BF50B661F771F881F991F1A94DF
:102C200069F760957095809590959B01AC01BD0109
:102C3000CF010895A29FB001B39FC001A39F700D63
:102C4000811D1124911DB29F700D811D1124911DB4
:102C500008950E949D1688F09F5798F0B92F9927E4
:102C6000B751B0F0E1F0660F771F881F991F1AF077
:102C7000BA95C9F714C0B13091F00E94B716B1E00F
:102C800008950C94B716672F782F8827B85F39F00E
:102C9000B93FCCF3869577956795B395D9F73EF410
:102CA00090958095709561957F4F8F4F9F4F0895B8
:102CB000E89409C097FB3EF49095809570956195D6
:102CC0007F4F8F4F9F4F9923A9F0F92F96E9BB278C
:102CD0009395F695879577956795B795F111F8CF08
:102CE000FAF4BB0F11F460FF1BC06F5F7F4F8F4F73
:102CF0009F4F16C0882311F096E911C0772321F069
:102D00009EE8872F762F05C0662371F096E8862F00
:102D100070E060E02AF09A95660F771F881FDAF757
:102D2000880F9695879597F9089557FD9058440F09
:102D3000551F59F05F3F71F04795880F97FB991F1A
:102D400061F09F3F79F087950895121613061406D7
:102D5000551FF2CF4695F1DF08C016161706180664
:102D6000991FF1CF86957105610508940895E8943F
:102D7000BB2766277727CB0197F908950E94D116C4
:102D80000C9442170E94341738F00E943B1720F031
:102D9000952311F00C942B170C94311711240C94DB
:102DA000B8160E94951670F3959FC1F3950F50E0E9
:102DB000551F629FF001729FBB27F00DB11D639FED
:102DC000AA27F00DB11DAA1F649F6627B00DA11D93
:102DD000661F829F2227B00DA11D621F739FB00D39
:102DE000A11D621F839FA00D611D221F749F3327A9
:102DF000A00D611D231F849F600D211D822F762F42
:102E00006A2F11249F5750409AF0F1F088234AF01E
:102E1000EE0FFF1FBB1F661F771F881F915050408A
:102E2000A9F79E3F510580F00C942B170C94B8160F
:102E30005F3FE4F3983ED4F3869577956795B79511
:102E4000F795E7959F5FC1F7FE2B880F911D96952B
:102E5000879597F9089597F99F6780E870E060E09B
:102E600008959FEF80EC089500240A941616170623
:102E700018060906089500240A941216130614066B
:102E800005060895092E0394000C11F4882352F0CE
:102E9000BB0F40F4BF2B11F460FF04C06F5F7F4F86
:102EA0008F4F9F4F0895DB018F939F930E94E515ED
:102EB000BF91AF91A29F800D911DA39F900DB29FD6
:102EC000900D11240895991B79E004C0991F96175D
:102ED00008F0961B881F7A95C9F78095089597FB8F
:102EE000072E16F4009407D077FD09D00E948317AF
:102EF00007FC05D03EF4909581959F4F08957095FD
:102F000061957F4F0895AA1BBB1B51E107C0AA1F03
:102F1000BB1FA617B70710F0A61BB70B881F991F7A
:102F20005A95A9F780959095BC01CD010895EE0FB3
:102F3000FF1F0590F491E02D099481E090E0F89452
:082F40000C94A217F894FFCFD6
:102F4800010100000000000000E20643039A039913
:0C2F5800030D0A004C4F4144455200009C
:00000001FF
